:020000040800F2
:10000000781600209D010008DB1300082B13000860
:10001000D9130008AD0700081D1D000800000000EE
:10002000000000000000000000000000DD190008D2
:10003000AF070008000000002D150008DF190008B8
:10004000B7010008B7010008B7010008B7010008B0
:10005000B70100082F150008B7010008B701000814
:10006000B7010008B7010008B7010008B701000890
:10007000B7010008B7010008B7010008B701000880
:10008000B7010008B7010008B7010008B701000870
:10009000B7010008B7010008B7010008B701000860
:1000A000B7010008B7010008B7010008B701000850
:1000B000B7010008B7010008B7010008B701000840
:1000C000B7010008B7010008B7010008B701000830
:1000D000B7010008B11C0008B7010008B70100080B
:1000E000B7010008B7010008B7010008B701000810
:1000F000B7010008B7010008B7010008B701000800
:10010000B7010008B7010008B7010008B7010008EF
:10011000B7010008B7010008B7010008B7010008DF
:10012000B7010008B7010008B7010008B7010008CF
:10013000B7010008B7010008B7010008B7010008BF
:10014000B7010008B7010008B7010008B7010008AF
:10015000B7010008B7010008B7010008B70100089F
:10016000B7010008B7010008B7010008B70100088F
:10017000B7010008B7010008B7010008000000003F
:10018000B7010008B7010008DFF80CD000F04CF907
:10019000004800472D1E00087816002006488047BA
:1001A00006480047FEE7FEE7FEE7FEE7FEE7FEE75C
:1001B000FEE7FEE7FEE7FEE7951A00088901000862
:1001C00040EA01039B0703D009E008C9121F08C0D9
:1001D000042AFAD203E011F8013B00F8013B521E59
:1001E000F9D27047421C10F8011B0029FBD1801A7C
:1001F000704700000FB400B58DB010A909900B90A6
:1002000000914FF0FF300A9000200C9005480690B6
:10021000054807906A4609A80F9900F0D7F80DB075
:100220005DF814FBE9030008070400082DE9FF5FEF
:100230001D464FF0FF3BD5E9014691465F464FF022
:100240000008A9697F1C01988847296A8246884767
:100250000028F6D1BAF1FF3F0CD024F4C064002E80
:1002600019DD600614D5BAF12B0F09D0BAF12D0FA4
:100270000ED103E0584604B0BDE8F09F44F480641A
:10028000A9697F1C01988847761E8246002E02DDF0
:10029000BAF1300F03D0B9F1000F26D032E0A969CE
:1002A000761E44F400747F1C019888478246002E15
:1002B00005DDBAF1780F06D0BAF1580F03D0B9F1C5
:1002C000000F10D01EE0B9F1000F02D0B9F1100FED
:1002D00018D1A969761E24F400747F1C0198884700
:1002E0008246102002E0082000E00A20814609E052
:1002F00008FB0908A969761E44F400747F1C019864
:1003000088478246002E05DD4946504600F04AF8EF
:100310000028EDDAE96901988847A00502D46FF05A
:100320000100A8E7E00725D1600613D5600502D5D6
:10033000C8F1000000E0404629680A1D2A600968EB
:10034000220501D5087015E0220701D5088011E0CB
:1003500008600FE02868011D29600068210502D5AA
:1003600080F8008006E0210702D5A0F8008001E0B7
:10037000C0F8008038467EE730B50B4601460020C5
:100380002022012409E021FA02F59D4205D303FA57
:1003900002F5491B04FA02F52844151EA2F10102D8
:1003A000F1DC30BD3A2800D2303820F02002412A5A
:1003B00001D3A2F13700884201D34FF0FF307047DC
:1003C000026811441378016018467047D1600449EF
:1003D00051610449116200211161114600F03CB8DD
:1003E000C10300084D040008426842B1016811F8D9
:1003F000013B23B1521EC0E900121846704701218B
:10040000C160881E704742685AB1C368016843B929
:1004100083688B4205D0491E521CC0E9001200209F
:1004200070474FF0FF307047064C074D06E0E0681C
:1004300040F0010394E8070098471034AC42F6D32B
:10044000FFF7A6FE0424000824240008C0B24FF4DD
:10045000F05100F097B900002DE9F34F8BB04FF049
:10046000000801F10C000C464FF0010B46460DF15F
:10047000080A01906269012101989047051E2DD05C
:10048000252D2CD0216A8847C0B1626901210198CD
:100490009047216A88470028F7D1411E6269019878
:1004A000904700E0761CA1690B988847216A88472D
:1004B0000028F7D1E1690B988847DBE7A1690B9821
:1004C00088470746A84201D1761CD3E7E1690B981B
:1004D00088477F1C02D1B8F1000F6FD046E100279A
:1004E00062693D463946019890472A2804D16269DD
:1004F0000121019890470125DFF88492626901216A
:1005000001989047A0F130010A290AD24F45E5DC55
:1005100007EB870100EB4107303FDFD445F01005C2
:10052000ECE7E90601D46FF000476C280AD04C28AC
:1005300014D0682815D06A280DD074281CD07A28C9
:100540001AD01DE062690121019890476C2802D001
:1005500045F0040514E045F002050DE045F02005E6
:100560000AE06269012101989047682802D045F0AD
:10057000080505E045F4006562690121019890478E
:10058000C4E9015765283DD019DC58287AD00CDC25
:10059000452837D004DC252826D0412831D131E048
:1005A00046282FD047282CD12CE05B2877D0612813
:1005B00028D063287CD0642823D15AE0D0E06F286B
:1005C00048D008DC66281DD067281BD0692821D0B8
:1005D0006E2816D127E0702845D0732868D075287A
:1005E00047D078280DD14DE0A1690B988847054682
:1005F00025283FF469AFE1690B9888476D1C3FF4EB
:100600006AAFB3E023466A466FF001000B99AFF37F
:1006100000809EE045F040006060A80723464FF050
:10062000000236D43EE0E8077FF447AF2068011DA2
:1006300021600068290501D506701BE7290701D54F
:10064000068017E7A90703D5F117C0E9006111E794
:1006500006600FE745F040006060A80723464FF0B2
:10066000080216D41EE040F60E0125EA0100606083
:1006700016E045F040006060A80723464FF00A02EC
:1006800007D40FE045F040006060A80708D5234676
:1006900010226FF001000B99AFF3008059E007E0E2
:1006A000234610226FF001000B99FFF7BFFD50E0C9
:1006B0004FF000094F464B46632802D05B2806D016
:1006C00040E0E80601D40120A06001273AE0626919
:1006D0000121019890475E2805D14FF00109626918
:1006E000494601989047216939B900210A46534685
:1006F00043F82120491C0829FADBB0B3216969B904
:10070000C11700EBD16253110AEB830122F01F02E3
:10071000821A01200B68904003430B60626901213B
:10072000019890475D28E8D1B9F1000F09D0002069
:10073000514651F82020D24341F82020401C08287F
:10074000F7DB02AB224600976FF001000B99AFF385
:10075000008000280CDA401C08D1BBF1000F05D046
:100760004FF0FF300DB0BDE8F08FFFE74046F9E7EE
:10077000E90701D108F1010806444FF0000B79E6C2
:10078000CCCCCC0C7F2801D9002208E0064A02EB31
:100790005002C007127800D1120902F00F020120A6
:1007A0009040084070470000F61F0008FEE77047C1
:1007B0002DE9F84F5C4A4FF008094FF0010A4FF05D
:1007C000000E4FF0000B9042584A08BF4FF0070947
:1007D00002444FEAB223072B38BF4FEAB229002266
:1007E000102A08BFBDE8F88F0B680AFA02F63342F8
:1007F00000F094804B6843F01004122C13D14F4D3D
:100800000BF01C030F2707FA03F405EA5205054411
:10081000D5F820C02CEA040C0C6904FA03F343EA6F
:100820000C032B624B68032703F00305122B07FA16
:100830000EF4076805FA0EF527EA04076FEA0404C8
:1008400047EA0507076012D80AFA03F717F0061FF0
:100850000DD08768CD68274005FA0EF52F438760D5
:10086000C3F3001745689740B5432F434760C768F7
:100870008D68DB0007EA040705FA0EF547EA05076D
:10088000C7604BD500232A4C0BF00C0500932A4B74
:10089000A4461F461B6843F480433B603B6803F457
:1008A0008043009322F003032344254C009FA0467D
:1008B0001F590F24AC4009FA05F5A7432F4343F80D
:1008C0000870DCF800304D6843EA060715F4803FF5
:1008D00008BF23EA060715F4003FCCF80070DCF8E7
:1008E000043043EA060708BF23EA060715F4801F11
:1008F000CCF80470DCF8083043EA060708BF23EAA6
:1009000006070C4B15F4001FCCF808701C461B683A
:1009100043EA060708BF23EA060727600EF1020E26
:100920000BF1040B01325BE7001C02400000FEBF2C
:10093000003C01400C3C014044380240FCFFFF7F7A
:1009400008FCFFFF4269514041617047002A08BF1F
:10095000090481617047000004480068704700BFC7
:100960000248016801310160704700BF7406002031
:1009700080B50B48016841F400710160016841F4E1
:1009800080610160016841F480710160032000F022
:1009900089F8002000F006F800F016F8002080BD6D
:1009A000003C024010B50446B9484FF47A71006823
:1009B000B0FBF1F000F028FC4FF0FF3021460022A0
:1009C00000F042F8002010BD10B5032000F06AF8D6
:1009D000164C6FF00B0000210022A0476FF00A00B8
:1009E00000210022A0476FF0090000210022A0474B
:1009F0006FF0040000210022A0476FF003000021E7
:100A00000022A0476FF0010000210022A0474FF014
:100A1000FF3000210022A047052000210022A0472E
:100A20000520BDE8104000F003B800BF490A0008E7
:100A300000F01F010122400902FA01F1014A42F8C7
:100A40002010704700E100E010B5154B1B4C00284A
:100A500000EB030C00F00F03A3F104032344B8BF21
:100A600003F10C0C2068C0F30220031DC41E80F0AB
:100A70000700072B4FF0010338BF0024042828BFCC
:100A8000042003FA00F00138084003FA04F10F31A2
:100A9000A0401140084300018CF8000010BD00BFC9
:100AA00000E400E005494FF6FF030A681A4060F3CE
:100AB0000A22034810430860704700BF0CED00E0B5
:100AC0000000FA052DE9F843584C80460D46D4F84D
:100AD000000400F00F00884207D284F80054D4F8D4
:100AE000000400F00F00A8424FD1D8F8000010F029
:100AF000020F06D0A168D8F8082021F0F0011143B8
:100B0000A160C00738D1D4F8000400F00F00A8425B
:100B100007D984F80054D4F8000400F00F00A8426C
:100B200033D1D8F8000010F0040F06D0A168D8F82F
:100B30000C2021F4E0511143A160000707D5A06803
:100B4000D8F8101020F4604040EAC100A06000F026
:100B5000A5F8A168F022002792FAA2F2B2FA82F276
:100B600001F0F001D140324A515CC8404849086068
:100B70000020FFF717FF09E0D8F80400811E0229C2
:100B800008D2216811F0007F0AD10127384601B050
:100B9000BDE8F083012844D1216811F4003FF4D06E
:100BA000A16821F003010843A060FFF7D5FE0646C7
:100BB000D8F8040041F28839032701280ED0022812
:100BC00018D0032822D1A06800F00C000C289AD07D
:100BD000FFF7C2FE801B4845F5D9D7E7A06800F0B3
:100BE0000C0004283FF48FAFFFF7B6FE801B48458A
:100BF000F4D9CBE7A06800F00C0008283FF483AFDD
:100C0000FFF7AAFE801B4845F4D9BFE7A06810F0A3
:100C10000C0F3FF478AFFFF79FFE801B4845F5D9D6
:100C2000B4E7216811F0020FAFD0B9E700380240F5
:100C30003620000801480121016070474C004742FE
:100C400013480068704700BF114812494FF4E05242
:100C50000068096892FAA2F2B2FA82F201F4E05155
:100C6000D1400D4A515CC840704700BF084809494F
:100C70004FF460420068096892FAA2F2B2FA82F276
:100C800001F46041D140044A515CC840704700BF44
:100C9000000000200838024046200008E14948686A
:100CA00000F00C021748082A04D0042A04BF164892
:100CB0007047704710B50A680B68134C13F4800F27
:100CC00047F6C07308BF044602F03F000A68B4FB51
:100CD000F0F01A4093FAA3F30968B3FA83F3DA4009
:100CE00001F4403150434FF4403292FAA2F2B2FA8A
:100CF00082F2D140022202EB4101B0FBF1F0BDE8EB
:100D0000104070470024F40000127A002DE9F843E7
:100D100004460078C34FC24EC007B84649D0786831
:100D200000F00C00042806D1306810F4003F40D0D9
:100D30006068F0BBBBE0786800F00C00082803D1C5
:100D4000386810F4800FEFD16768B7F5803F06D0A0
:100D50003068B7F5A02F14D140F48020306030689F
:100D600040F480303060FFF7F7FD054647463068B5
:100D700010F4003F1DD1FFF7EFFD401B6428F6D9AA
:100D8000D8E020F480303060306820F4802030607B
:100D9000FFF7E2FD0546002FE8D13068474610F422
:100DA000003F06D0FFF7D8FD411B03206429F4D98A
:100DB00033E12078800746D5786810F00C0F08D012
:100DC000786800F00C00082810D1386810F4800F03
:100DD0000CD1306810F0020F02D0E068012866D113
:100DE00030682169F82292FAA2F225E0E1688E4883
:100DF00071B101210160FFF7AFFD0546306810F0C9
:100E0000020F14D1FFF7A8FD401B0228F6D991E08C
:100E100000210160FFF7A0FD0546306810F0020FC9
:100E200011D0FFF799FD401B0228F6D982E0306807
:100E30002169F82292FAA2F2B2FA82F220F0F800C6
:100E40009140084330602078000722D561697648D8
:100E500079B10121C0F8801EFFF77EFD0546386F8D
:100E600010F0020F15D1FFF777FD401B0228F6D9CD
:100E700060E00021C0F8801EFFF76EFD0546386F68
:100E800010F0020F05D0FFF767FD401B0228F6D9CE
:100E900050E0207840070CD4A769002F00F0BC80F8
:100EA0004046D8F8040000F00C00082844D1012086
:100EB000B3E000205D4F0090D8F83C0040F0805037
:100EC000C8F83C00D8F83C0000F080500090009832
:100ED000F05940F48070F051FFF73EFD0546F0599F
:100EE00010F4807F05D1FFF737FD401B0228F6D9AB
:100EF00020E0A768012F07D0D8F86C004146052FE5
:100F000039D140F00400C866D8F86C0040F0010008
:100F1000C8F86C00FFF720FD054641F288374046CF
:100F2000D8F86C0010F0020FB6D1FFF715FD401B8A
:100F3000B842F4D9032070E03B4900208946086696
:100F4000FFF70AFD0546022F0AD1306810F0007F36
:100F50002DD0FFF701FD411B03200229F5D95CE0EC
:100F6000306810F0007F57D0FFF7F6FC411B0320DC
:100F70000329F5D351E020F00100C866C86E20F0C7
:100F80000400C866FFF7E8FC0546002FC5D141F212
:100F900088374046D8F86C0010F0020F3FF47CAF61
:100FA000FFF7DAFC411B0320B942F2D935E004F126
:100FB0001C0247F6C07307CA93FAA3F3B3FA83F38C
:100FC00008439A40A16A10434FF0FF3202EB5101EF
:100FD0004FF4403292FAA2F2B2FA82F291404FF00C
:100FE00070620843E16A92FAA2F2B2FA82F2914088
:100FF0000843C8F800000120C9F86000FFF7ACFC06
:101000000446306810F0007F06D1FFF7A5FC011BF5
:1010100003200229F5D900E0002001B0BDE8F083EB
:101020000038024004380240000047420038FEFF0A
:101030007D4904280A6822F0040308BF42F0040333
:101040000B6070472DE9F843DFF89C816749D8F8B9
:1010500000008946884203D10020C8F800000DE056
:101060004CF25031884209D161490A6832B1614875
:1010700001220260002008604CF250305E4DE96AA7
:10108000D1B1A968884217D15A480068A0B1A86AAE
:101090005A4C40F00201022906D120464FF480410B
:1010A0000122FFF753FCA86A012805D120464FF41E
:1010B00080410022FFF74AFC514CE06A002842D0F0
:1010C000D8F80000A16888421ED1A36962684F4623
:1010D000A16A184402EB09070344BB42C8BF10468B
:1010E0000029A060454806D0022908D14FF40041EC
:1010F000FFF728FC08E04FF40041012202E04FF422
:1011000000410022FFF722FCD8F80010206981423C
:1011100019D1A369E2684F46A06A194402EB090796
:101120000B44BB42C8BF11460128216105D050B90C
:1011300032484FF40041002203E030484FF40041B0
:101140000122FFF703FC2B480068002844D02D4EF5
:10115000002700243EE0F519E86AC8B3A968D8F86A
:101160000000884219D1AA6969684B46104401EB16
:10117000090302449A42C8BF0846A860A86A28B179
:10118000022807D1204600F017FE06E0204600F0B6
:10119000F5FD02E0204600F029FE2969D8F800009C
:1011A000884215D1AA69E9684B46104401EB09034E
:1011B00002449A42C8BF08462861A86A012804D0A0
:1011C00030B9204600F012FE02E0204600F0D6FDC5
:1011D00030370134C02FBED1D8F800000130C8F834
:1011E0000000BDE8F88300BF28060020A0860100AB
:1011F00010000020140000204C000020001C0240C1
:101200001C00002068050020411E0020B0EB116F7B
:101210001CBF01207047044AF023516003490B7042
:10122000072190601160704710E000E023ED00E0BE
:10123000FFF708BF10B5044618B3E06B20B90020D3
:10124000A063204600F01FF82420E0632068C168F6
:1012500021F40051C160204600F042FC2068016981
:1012600021F490410161416921F02A014161C16885
:1012700041F40051C160002020216064E1632164D9
:1012800010BD012010BD70472DE9F0410446C06B30
:101290001D4617460E46202807D10120002E42D0B9
:1012A000002F40D0A06B012802D10220BDE8F081C0
:1012B000002060640120A0632120E063FFF74CFB65
:1012C0008046A784E7841DE0E08C802142462B46BF
:1012D0000138E0842046A76800F0C0FCB7F5805FC5
:1012E0000BD1C8B9318820686FF35F214160206954
:1012F000002814BF0136023604E068B9206816F8E9
:10130000011B4160E08C0028DED12046402142468E
:101310002B4600F0A3FC10B10320BDE8F0810020B3
:101320002021A063E163BDE8F081FEE770B586B0DF
:1013300000267A48264C01AD0196416941F0100122
:101340004161416901F01001019101990196016823
:1013500041F002010160016801F00201019101996F
:101360000196016841F0020101602946006800F021
:101370000200019001980220029040200190032079
:1013800003960490072005902046FFF711FA80206D
:10139000294601902046FFF70BFA25200121002263
:1013A000FFF752FB2520FFF743FB0A484FF4E131DA
:1013B000A4F574420C23C0E90021C0E90266C0E92B
:1013C0000463C0E90666FFF735FF06B070BD00BFD5
:1013D000000402402C060020FEE770472DE9F04F84
:1013E00087B000274D484E4D4E4E00224FF0100959
:1013F0000697CDE904770197016841F0010101608A
:10140000016801F00101019101990197016841F022
:1014100001010160016801F0010101910199019749
:10142000016841F001010160016801F001010191D1
:1014300001990197016841F080010160016801F0A4
:101440008001019101990197016841F080010160DB
:10145000016801F08001019101990197016841F053
:10146000800101601021006800F080000190019867
:101470002846B0472846202100224FF02008B047D8
:101480002846402100224FF0400BB04705F5E054BC
:101490004FF4005100222046B04720464FF48041CF
:1014A0000022B04720464FF400410022B047CDF85B
:1014B000089002AEDFF870904FF0010A28463146DE
:1014C000CDF80CA00597C84728463146CDE9028AD9
:1014D0000597C84728463146CDE902BA0597C8475F
:1014E0004FF40050CDF80CA03146029020460597ED
:1014F000C8474FF48040CDF80CA0314602902046FA
:101500000597C8474FF40040CDF80CA03146029033
:1015100020460597C84707B0BDE8F08F3038024035
:10152000000002404D090008B107000870477047ED
:101530002DE9F04F9DB002467D38032880F0B2813E
:10154000DFF81CB4DFF814740DF1200E0BF150001D
:101550000BF13C080BF158010BF1640201970BF100
:101560000C090BF134030BF1380407F1A40607F161
:10157000900507F1AC0CCDE91821CDE91A800BF1EB
:1015800068000BF120010BF12802CDE91056CDE9DE
:10159000124307F1600607F17C0507F1880407F1A3
:1015A0007403CDE91429CDE9161007F18C0007F179
:1015B000B80107F1BC02AEE8710007F14400CDE9C3
:1015C0000C32CDE90E1CDFF8A01307F12C0207F155
:1015D0002803079007F13000069007F14C000590B2
:1015E00007F15800049007F15C00039007F1140024
:1015F000029007F11C000090DA48FEF7FBFD002482
:1016000003E0381900F08CFB3034C02CF9D1484687
:1016100000F086FB404600F083FBDBF86800D34C0B
:10162000A8B1DBF8640040F00201022907D120468E
:101630004FF480410022FFF789F9DBF864000128AC
:1016400005D120464FF480410122FFF77FF9DBF8F6
:101650003800A8B1DBF8340040F00201022907D1BC
:1016600020464FF400410022FFF770F9DBF8340008
:10167000012805D120464FF400410122FFF766F909
:10168000F86A98B1B86A40F00201022906D1A4F5BF
:10169000E05010210022FFF759F9B86A012805D15E
:1016A000A4F5E05010210122FFF750F9F86D98B130
:1016B000B86D40F00201022906D1A4F5E0502021C6
:1016C0000022FFF743F9B86D012805D1A4F5E050D9
:1016D00020210122FFF73AF9D7F88C00A8B1D7F8FA
:1016E000880040F00201022907D1A4F5E050402112
:1016F0000022FFF72BF9D7F88800012805D1A4F5BF
:10170000E05040210122FFF721F9D7F8BC00A8B131
:10171000D7F8B80040F00201022907D120464FF463
:1017200000510022FFF712F9D7F8B800012805D1BF
:1017300020464FF400510122FFF708F9D7E90A3299
:10174000D7E905C1FE69D7E90054B868DFF82092EF
:10175000CDE90065CDE902C18649874ECDE9044057
:101760004846B047854948468847DFF81482DFF885
:1017700014A282B249464FF4FA634046D047D7E9F3
:101780001632D7E911C1FE6CD7E90C54B86BCDE91C
:101790000065CDE902C1CDE90440774C7A4948465D
:1017A0002646A047754C4846A04782B24046494667
:1017B0004FF4FA63D047D7E92232D7E91DC1FE6F53
:1017C000D7E91854B86ECDE90065CDE902C16F497B
:1017D000694ECDE904404846B047684948468847C5
:1017E00082B2404649464FF4FA63D04707F1A40657
:1017F000D7E92E320DF1080C43CED7E92454D7F89F
:101800009870CDE90065ACE8930061495A4F4846AD
:10181000B8475A494846884782B2404649464FF43D
:10182000FA63D0470BF12007DBE90D320DF1080C0C
:1018300083CFDBE90365DBF81440CDE90076ACE843
:10184000230054494C4F48460594B8474B494846F5
:10185000884782B2404649464FF4FA63D0470BF1BD
:101860005007DBE919320DF1080C83CFDBE90F6576
:10187000DBF84440CDE90076ACE8230046493E4F12
:1018800048460594B8473D494846884782B2404695
:1018900049464FF4FA63D0470120CBF808001DB049
:1018A000BDE8F08FD01E012836D82D4DA868C8B3EA
:1018B0002C4968684A78732A08BF002801D10122A0
:1018C0002A6049780028EAD06529E8D12348002415
:1018D0006C6000F128060DE0706848B1306801289E
:1018E00003D1204600F04AFA02E0204600F07EFADA
:1018F00030360134042CEFD1A86E0028CFD06D6EA5
:101900001DB31A4C4FF4804101222046FFF71EF808
:10191000012DC4D0204619E0154C27A1204600F027
:1019200097FA05E0124C1DA11C222046FEF748FC48
:101930002046FEF757FC82B2114821464FF47A73D5
:101940001DB0BDE8F04FFFF79FBC08484FF4804141
:1019500000221DB0BDE8F04FFEF7F8BF680500207B
:101960001000002068040020A8230008001C02408A
:10197000800000204E200008511E0008E5010008EC
:101980002C06002089120008DA20000866210008D1
:10199000F22100087E2200080E230008506C6561C9
:1019A000736520436F6E666967204265666F726576
:1019B0002053746172740A0057524F4E47204C45B1
:1019C0004E47544820504C5A20434845434B2054DE
:1019D000484520494E50555425640A00704780B54B
:1019E000FEF7BEFFBDE88040FFF722BCB0B592B065
:1019F0000024264802250694016841F080510160C8
:101A0000006800F08050069006980694204801680F
:101A100041F480410160006800F48040069006981F
:101A20004FF480300790012006904FF480000C9511
:101A30000D9008200E904FF4A870CDE90F050720F7
:101A4000119006A8FFF762F90F200521CDE90105E5
:101A50004FF4A050039404904FF48050059001A8D7
:101A6000FFF730F8FFF7E6F8FFF7EAF8C249B0FBF6
:101A7000F1F0FFF7C9FB0420FFF7DAFA4FF0FF306F
:101A800000210022FEF7E0FF12B0B0BD4038024056
:101A90000070004010B50E480F4CD0F8801041F493
:101AA0007001C0F880100B490A6842F001020A6018
:101AB00000228A600B6823400B60084B4B600B6868
:101AC00023F480230B60CA604FF00061016010BDF9
:101AD00008ED00E000380240FFFFF6FE1030002461
:101AE0002DE9F047044600680169E26821F440519D
:101AF000114349F20C620161C1689143A268D4E9C3
:101B00000437E6691143B6F5004F41EA030141EAA3
:101B1000070141EA0601C1604169A26921F44071EF
:101B200041EA020141614A4940F480603FD1884264
:101B30000CBFDFF820A1DFF820A1D047D4F8049033
:101B40008046D04767680646D047616819257F0000
:101B5000684306FB05F34900B3FBF7F3B0FBF1F074
:101B60006421B0FBF1F202FB1102181A4FEA49039B
:101B70001044322202EBC0004FF4F872B0FBF1F0D7
:101B800002EA400008FB05F2B2FBF3F2B2FBF1F10E
:101B900000EB0116D047616868434900B0FBF1F7DC
:101BA000D047616868430722032349003CE088422C
:101BB00014BFDFF8A4A0DFF89CA0D047D4F80490AD
:101BC0008046D04767680646D04761681925BF0040
:101BD000684306FB05F38900B3FBF7F3B0FBF1F0B4
:101BE0006421B0FBF1F202FB1102181A4FEA8903DB
:101BF0001044322202EB001008FB05F2B0FBF1F0BA
:101C0000B2FBF3F200F0F000B2FBF1F100EB0116D1
:101C1000D047616868438900B0FBF1F7D04761683D
:101C200068430F2204238900B0FBF1F0391A6427BE
:101C3000B0FBF7F505FB17000844216898403230E7
:101C4000B0FBF7F0104030438860BDE8F08700BF7C
:101C5000001401406D0C0008490C00082DE9F0410A
:101C60001D4690460F4604465E1C206801683940B8
:101C7000B94204BF0020BDE8F081002EF5D035B197
:101C8000FEF76AFEA0EB0800A842EED92068C16802
:101C900021F4D071C160416921F00101416120202E
:101CA0000021E063A16320640320BDE8F08100000F
:101CB00066480068016811F0200F15D1016811F025
:101CC000100F08BF704710B56FF01001114C016084
:101CD000C16821F01001C1602088FFF729FC0020B5
:101CE0002080BDE8104014E00A4942680B8833B9EF
:101CF0006FF010030360C36843F01003C3600888EB
:101D0000FE2806D80888044B1A5408880130088039
:101D1000704770477C00002068040020FEE7000048
:101D20002DE9F04101684FF00A0C4269124DD0F8DC
:101D30001CE091FBFCF392FBFCF811F10A0F95FB00
:101D4000FEF403EB0502194603EB08061546D8BF5F
:101D500021443746C8BF1D46B6F1FF3FDCBF2744CC
:101D600002EB0806C0E90031C0E90257C0E9046887
:101D70008461BDE8F08100BFA0860100032888BF10
:101D80007047DFE800F00214070C274810210122F9
:101D9000FEF7DCBD244840210122FEF7D7BD2248D2
:101DA0004FF40051012200F5E050FEF7CFBD1E4870
:101DB00020210122FEF7CABD032888BF7047DFE853
:101DC00000F00211060A18481021FEF7BBBD1648A4
:101DD0004021FEF7B7BD14484FF4005100F5E05024
:101DE000FEF7B0BD10482021FEF7ACBD032888BF28
:101DF0007047DFE800F00214070C0B4810210022A6
:101E0000FEF7A4BD084840210022FEF79FBD06480A
:101E10004FF40051002200F5E050FEF797BD024854
:101E200020210022FEF792BD0000024080B5FEF79F
:101E30009FFDFFF7DBFDFFF779FAFFF7CFFA0348C5
:101E40000068C16841F02001C160FEE72C06002057
:101E50000FB4084B10B504A902AA039800F01CF8AF
:101E6000044602A9002000F0C1F8204610BC5DF82D
:101E700014FB0000ED1F000802E008C8121F08C193
:101E8000002AFAD170477047002001E001C1121FFB
:101E9000002AFBD1704700002DE9FF4F89B09B4617
:101EA0000446002506E025280BD05A460B9990479A
:101EB000641C6D1C20780028F5D10DB02846BDE8C3
:101EC000F08F0027B8460122474900E0074314F885
:101ED000013F203B02FA03F00842F7D120782E2878
:101EE00019D114F8010F47F004072A280ED06FF01B
:101EF0002F022078A0F1300109290CD808EB8801C5
:101F000002EB410100EB0108641CF2E70A98641C33
:101F100050F8048B0A9020780028CED0642808D08E
:101F2000692806D075281ED05A460B9990476D1C1B
:101F300058E00A994FF00A0901C90A91002802DA0B
:101F400040422D2102E0390504D52B218DF82010C7
:101F5000012103E0F90704D02021F7E78A4608AE03
:101F60000DE00021FAE70A994FF00A0901C90A9128
:101F7000F7E74946FEF700FA303106F8011D002860
:101F8000F7D1ADEB060000F12009780701D44FF03E
:101F90000108C84502DDA8EB090000E000208046EA
:101FA000002706E008A85A46C05D0B9990476D1CB3
:101FB0007F1C5745F6DB04E030205A460B999047CA
:101FC0006D1CB8F10001A8F10108F5DC05E016F878
:101FD000010B5A460B9990476D1CB9F10001A9F10C
:101FE0000109F4DC641C65E7092801000A68531C38
:101FF0000B6010707047DDDDDDDDDCBBBBDDDDDDE2
:10200000DDDDDDDDDDDD9888888888888888777764
:1020100077777788888885555556666666666666DA
:10202000666666688888833333322222222222221F
:1020300022222228888D00000000000000000102FA
:1020400003040607080900000000010203045468A5
:1020500065206368616E6E656C2031206973202590
:10206000640A746865206D6F64652069733A202581
:10207000640A54686520667265712069733A202588
:10208000640A546865206F66667365742069733AE4
:102090002025640A54686520776964746820697330
:1020A0003A2025640A204761702069733A2025642C
:1020B0000A20466972737420656467652069733A03
:1020C0002025640A2043757272656E74206564670A
:1020D00065206973203A25640A00546865206368A6
:1020E000616E6E656C20322069732025640A746805
:1020F00065206D6F64652069733A2025640A546811
:102100006520667265712069733A2025640A5468F7
:1021100065206F66667365742069733A2025640ACA
:102120005468652077696474682069733A2025646F
:102130000A204761702069733A2025640A204669A5
:1021400072737420656467652069733A2025640A98
:102150002043757272656E742065646765206973CB
:10216000203A25640A00546865206368616E6E65D4
:102170006C20332069732025640A746865206D6FB4
:1021800064652069733A2025640A54686520667284
:1021900065712069733A2025640A546865206F666A
:1021A000667365742069733A2025640A5468652053
:1021B00077696474682069733A2025640A2047614E
:1021C000702069733A2025640A204669727374206E
:1021D000656467652069733A2025640A2043757237
:1021E00072656E742065646765206973203A2564A2
:1021F0000A00546865206368616E6E656C20342047
:1022000069732025640A746865206D6F64652069B0
:10221000733A2025640A54686520667265712069E6
:10222000733A2025640A546865206F666673657486
:102230002069733A2025640A5468652077696474BC
:10224000682069733A2025640A2047617020697309
:102250003A2025640A2046697273742065646765B4
:102260002069733A2025640A2043757272656E7482
:102270002065646765206973203A25640A00546804
:102280006520636C6F636B206368616E6E656C20A4
:1022900069732025640A746865206D6F6465206920
:1022A000733A2025640A5468652066726571206956
:1022B000733A2025640A546865206F6666736574F6
:1022C0002069733A2025640A54686520776964742C
:1022D000682069733A2025640A2047617020697379
:1022E0003A2025640A204669727374206564676524
:1022F0002069733A2025640A2043757272656E74F2
:102300002065646765206973203A25640A00546873
:102310006520737461727420696E64696361746F9F
:1023200072206368616E6E656C2069732025640A93
:10233000746865206D6F64652069733A2025640AAE
:1023400054686520667265712069733A2025640AB5
:10235000546865206F66667365742069733A20253A
:10236000640A5468652077696474682069733A2048
:1023700025640A204761702069733A2025640A2089
:10238000466972737420656467652069733A202515
:10239000640A2043757272656E74206564676520F7
:1023A0006973203A25640A00256420256420256489
:1023B00020256420256420256420256420256420B0
:1023C000256420256420256420256420256420259B
:1023D000642025642025642025642025642025644C
:1023E0002025642025642025642025642025642080
:1023F000256420256420256420256420256420256B
:1024000064000000302400080000002010000000DC
:10241000781E000840240008100000206816000004
:10242000881E0008000000000000000000000000FE
:102430000024F40000000000000000000000000084
:040000050800018965
:00000001FF
