:020000040800F2
:10000000101B002055030008372700087F26000832
:10001000352700089D0E0008813700080000000009
:100020000000000000000000000000001D2F00087C
:100030009F0E000800000000812800081F2F000804
:100040006F0300086F0300086F0300086F030008C8
:100050006F0300086F0300086F0300086F030008B8
:100060006F0300086F0300086F0300086F030008A8
:100070006F0300086F0300086F0300086F03000898
:100080006F0300086F0300086F0300086F03000888
:100090006F0300086F0300086F0300086F03000878
:1000A0006F0300086F0300086F0300086F03000868
:1000B0006F0300086F0300086F0300086F03000858
:1000C0006F0300086F0300086F0300086F03000848
:1000D0006F0300086F0300086F030008193700085A
:1000E0006F0300086F030008000000006F030008A2
:1000F0006F0300086F0300086F0300086F03000818
:100100006F0300086F0300086F0300086F03000807
:100110006F0300086F0300086F0300086F030008F7
:100120006F0300086F0300086F0300086F030008E7
:100130006F0300086F0300086F0300086F030008D7
:1001400000000000000000000000000000000000AF
:100150006F0300086F0300086F0300086F030008B7
:100160006F0300086F0300086F0300086F030008A7
:100170006F0300086F0300086F0300080000000011
:100180006F0300086F0300086F0300086F03000887
:100190006F0300086F0300086F0300086F03000877
:1001A0006F0300086F0300086F0300086F03000867
:1001B0006F0300086F0300086F0300086F03000857
:1001C0006F0300086F0300086F0300086F03000847
:1001D0006F0300086F0300086F0300086F03000837
:1001E0006F0300086F0300086F0300086F03000827
:1001F0006F0300086F0300086F0300086F03000817
:100200006F0300086F0300086F0300086F03000806
:100210006F0300086F0300086F0300086F030008F6
:100220006F0300086F0300086F0300080000000060
:100230006F0300086F030008000000006F03000850
:100240006F0300086F0300086F0300086F030008C6
:100250006F0300086F0300086F0300086F030008B6
:100260006F0300086F0300086F0300086F030008A6
:100270006F0300086F0300086F0300080000000010
:100280006F030008000000006F030008000000007A
:10029000000000006F03000800F002F800F04AF8C8
:1002A0000AA090E8000C82448344AAF10107DA45D1
:1002B00001D100F03FF8AFF2090EBAE80F0013F0D9
:1002C000010F18BFFB1A43F001031847AC3A0000B6
:1002D000CC3A0000103A24BF78C878C1FAD8520747
:1002E00024BF30C830C144BF04680C6070470000B0
:1002F0000023002400250026103A28BF78C1FBD82F
:10030000520728BF30C148BF0B607047642900F016
:100310000181002070471FB503F032FB00F07CFD27
:1003200004000020002103F015FB401C60601FBD8D
:1003300010B510BD00F035FD1146FFF7ECFF03F0DE
:10034000B7FA00F05BFD03B4FFF7F2FF03BC00F067
:100350005DFB00000948804709480047FEE7FEE7CB
:10036000FEE7FEE7FEE7FEE7FEE7FEE7FEE7FEE765
:1003700004480549054A064B704700001130000843
:100380009902000810070020101B0020100B00200D
:10039000100B002053EA020C00F069802DE9F04BAD
:1003A0004FF00006002B1FBFB3FA83F503FA05F4E4
:1003B00024FA05F65E4012BF1643B2FA82F502FA3D
:1003C00005F4C5F120051EBF22FA05FC44EA0C0421
:1003D000203556EA044C4FEA144418BF641C4FF011
:1003E00000084FF00009904271EB030C39D300294B
:1003F00019BFB1FA81F701FA07F6B0FA80F700FAEF
:1004000007F6C7F120071EBF20FA07FC46EA0C06D4
:100410002037B6FBF4FCA7EB0507103F07F01F0BD6
:10042000CBF120062CFA06F60CFA0BFB44BFB346C0
:100430000026202FA4BF5E464FF0000B5BEA060C9F
:1004400008BF4FF0010B19EB0B0948EB0608ABFB9B
:10045000027C06FB02CC0BFB03CCC01B71EB0C0136
:10046000C1E70B46024641464846BDE8F08B13B54E
:100470004FF000004FF00001AFF30080BDE81C40DA
:10048000704700000FB41CB5074B06AA7B446946B1
:100490000090059800F02BFA0020694600F03AFA27
:1004A0001CBC5DF814FB0000850400002DE9F04140
:1004B0000E460446002020622046E168884730B39B
:1004C000252805D0D4E901219047206A401CF2E795
:1004D000E168204600278847050018D0A5F14100B3
:1004E000192802D820354FF40067324629462046A5
:1004F0002760FFF70BFF40B1012804D0F61D26F05E
:1005000007060836D8E7361DD6E72846DAE7206A18
:10051000BDE8F0812DE9F0410646002410687529F8
:10052000314616A510D0AFF30080002802DA404211
:1005300013A507E031688A0701D512A502E0490733
:1005400004D511A5012401E0AFF3008000210A22A7
:1005500006F1240709E0B0FBF2FCB0FBF2F302FB6A
:100560001C00303078541846491C0028F3D123462B
:100570002A463046BDE8F04100F05AB900000000BC
:100580002D0000002B000000200000000FB400B57B
:100590008DB010A9099000910B904FF0FF300A9098
:1005A00000200C90064878440690064878446A4635
:1005B00007900F9909A800F0C7F90DB05DF814FB7A
:1005C000BF030000D70300002DE9FF5F1D464FF079
:1005D000FF3B91464FF000085F46D5E90146A96907
:1005E00001987F1C8847296A824688470028F6D1EF
:1005F000BAF1FF3F0CD0002E24F4C06419DD600670
:1006000014D5BAF12B0F09D0BAF12D0F0ED103E09A
:10061000584604B0BDE8F09F44F48064A96901988D
:100620007F1C8847761E8246002E02DDBAF1300F0D
:1006300003D0B9F1000F26D032E0A969761E0198E7
:100640007F1C44F400748847002E824605DDBAF111
:10065000780F06D0BAF1580F03D0B9F1000F10D0BF
:100660001EE0B9F1000F02D0B9F1100F18D1A9693D
:10067000761E01987F1C24F400748847824610205F
:1006800002E0082000E00A20814609E0A96908FB91
:100690000908761E01987F1C44F40074884782463E
:1006A000002E05DD4946504600F039F90028EDDA04
:1006B000E96901988847A00502D46FF00100A8E716
:1006C000E00725D1600613D5600502D5C8F100000A
:1006D00000E0404629680A1D2A600968220501D504
:1006E000087015E0220701D5088011E008600FE0CE
:1006F0002868011D29600068210502D580F8008066
:1007000006E0210702D5A0F8008001E0C0F80080D3
:1007100038467EE710B5431C02E010F8011B71B1AA
:100720008107FAD14FF0013202C88C1A8C4314EAC7
:10073000C211F9D0C01A0A0603D0C01E10BDC01ADB
:1007400010BD0A0401D0801E10BD0902FCD0401E5D
:1007500010BD032A40F2308010F0030C00F0158029
:1007600011F8013BBCF1020F624498BF11F801CBB4
:1007700000F8013B38BF11F8013BA2F1040298BF19
:1007800000F801CB38BF00F8013B11F0030300F083
:100790000B81083AC0F0088051F8043B083A51F840
:1007A00004CBA0E80810F5E7121D5CBF51F8043B2C
:1007B00040F8043BAFF30080D20724BF11F8013B9F
:1007C00011F801CB48BF11F8012B24BF00F8013B01
:1007D00000F801CB48BF00F8012B70474FF0000232
:1007E00000B5134694469646203922BFA0E80C5027
:1007F000A0E80C50B1F12001BFF4F7AF090728BF02
:10080000A0E80C5048BF0CC05DF804EB890028BF7D
:1008100040F8042B08BF704748BF20F8022B11F0A6
:10082000804F18BF00F8012B704770477047704722
:100830002DE9F0470D4699469246044600F12408FA
:100840000168880604D5E06921F01001216000E00C
:100850000120A84201DD471B00E00027A1697A19A9
:1008600002EB0900081AA0612078C00602D42046D5
:10087000AFF30080002608E0D4E901211AF8060051
:100880009047206A401C761C20624E45F4DB20789D
:10089000C0060AD52046AFF3008006E0D4E9012166
:1008A00030209047206A401C2062381EA7F10107C3
:1008B000F4DC07E0D4E9012118F805009047206A2C
:1008C000401C2062281EA5F10105F3DC2046AFF391
:1008D00000802078000602D50220BDE8F0870120C4
:1008E000FBE7000001694A1C02610878704700B507
:1008F0008FB0CDE901310021059105497944CDE959
:10090000031011466846FFF7D1FD0FB000BD00008F
:10091000E5FFFFFF0A6802F8010B0A6070473A28FA
:1009200000D2303820F02002412A01D3A2F1370052
:10093000884201D34FF0FF30704700000268114435
:100940001378016018467047D160054979445161B8
:1009500004497944116200211161114600F066B822
:10096000EDFFFFFFC3000000426842B1016811F8CB
:10097000013B23B1521EC0E9001218467047012105
:10098000C160881E704742685AB1C368016843B9A4
:1009900083688B4205D0491E521CC0E9001200201A
:1009A00070474FF0FF30704710B5203AC0F00B8011
:1009B000B1E81850A0E81850B1E81850A0E8185055
:1009C000203ABFF4F5AF5FEA027C24BFB1E81850CB
:1009D000A0E8185044BF18C918C0BDE810405FEA2D
:1009E000827C24BF51F8043B40F8043B08BF7047A9
:1009F000D20728BF31F8023B48BF11F8012B28BFAE
:100A000020F8023B48BF00F8012B7047014918202D
:100A1000ABBEFEE72600020010B5044600F0E6F982
:100A20000068005D00F0010010BD00002DE9F34FEB
:100A30004FF0000A0C4656468DB001200C9001F193
:100A40000C000B9062690B9801219047051E2DD078
:100A5000252D2CD0216A8847C0B162690B980121ED
:100A60009047216A88470028F7D16269411E0B9898
:100A7000904700E0761CA1690D988847216A884755
:100A80000028F7D1E1690D988847DBE7A1690D9847
:100A90008847A842074601D1761CD3E7E1690D9843
:100AA00088477F1C02D1BAF1000F6FD06BE16269F9
:100AB0000B9800273D46394690472A2804D16269A1
:100AC0000B98012190470125DFF8D08262690B98CD
:100AD00001219047A0F130010A290AD24745E5DCFF
:100AE00007EB870100EB4107303FDFD445F01005ED
:100AF000ECE7E90601D46FF000476C280AD04C28D7
:100B000014D0682815D06A280DD074281CD07A28F3
:100B10001AD01DE062690B98012190476C2802D021
:100B200045F0040514E045F002050DE045F0200510
:100B30000AE062690B9801219047682802D045F0CD
:100B4000080505E045F4006562690B9801219047AE
:100B5000C4E9015765283DD019DC58287AD00CDC4F
:100B6000452837D004DC252826D041289ED131E005
:100B700046282FD0472899D12CE05B2877D06128D0
:100B800028D063287CD0642823D15AE0F6E06F286F
:100B900048D008DC66281DD067281BD0692821D0E2
:100BA0006E2816D127E0702845D0732868D07528A4
:100BB00047D078280DD14DE0A1690D9888472528A8
:100BC00005463FF469AFE1690D9888476D1C3FF415
:100BD0006AAFD8E00D9923466A466FF00100AFF383
:100BE0000080C5E045F0400023464FF00002606001
:100BF000A80736D43EE0E8077FF447AF2068011D20
:100C000021600068290501D506701BE7290701D579
:100C1000068017E7A90703D5F117C0E9006111E7BE
:100C200006600FE745F0400023464FF00802606081
:100C3000A80716D41EE040F60E0125EA0100606008
:100C400016E045F0400023464FF00A026060A80716
:100C500007D40FE045F040006060A80708D52346A0
:100C600010220D996FF00100AFF3008080E007E0E3
:100C7000102223460D996FF00100FFF7A5FC77E0E5
:100C80004FF0000963284F46C8464B46CB4602D07A
:100C90005B2806D038E0E80601D40120A0600127D7
:100CA00032E06269D4F80CB00B98012190475E28BD
:100CB00007D14FF0010949466269D4F80CB00B988E
:100CC0009047216939B900210A4603AB43F8212036
:100CD000491C0829FADBD8B3216949B308F1010896
:100CE00062690B98012190475D28F4D1B9F1000F9A
:100CF00009D0002003A951F82020D24341F8202038
:100D0000401C0828F7DB03AB2069002820794FEA54
:100D100040701ED05B462246CDF80080CDE9019799
:100D20000D9900286FF0010020DAAFF300801FE07A
:100D3000C11703AA00EBD1614B1121F01F0102EB97
:100D40008302411A13680120884003431360C7E7F8
:100D500019E00D99224600286FF00100009702DA91
:100D6000AFF3008004E0AFF3008001E0AFF3008058
:100D700000280ADA401C06D10C9820B14FF0FF3051
:100D80000FB0BDE8F08F5046FAE7E90701D10AF14C
:100D9000010A064400200C9054E60000CCCCCC0C98
:100DA0007047754600F034F8AE4605006946534674
:100DB00020F00700854618B020B5FFF7D9FABDE846
:100DC00020404FF000064FF000074FF000084FF0B2
:100DD000000BAC46ACE8C009ACE8C009ACE8C009FF
:100DE000ACE8C00921F007018D46704710B500F04E
:100DF00013F8001D10BD00BF5D2B000010B50446A8
:100E0000AFF300802046BDE81040FFF79CBA000019
:100E10000048704710000020004870473000002054
:100E200030B44FF0013C50F8042BCCFA52F451F896
:100E3000043BD51A20D1FCB950F8042BCCFA52F45B
:100E400051F8043BD51A17D1B4B950F8042BCCFA99
:100E500052F451F8043BD51A0ED16CB950F8042B5A
:100E6000CCFA52F451F8043BD51A05D1002CDAD053
:100E700030BC4FF00000704729BAB1FA81F111F08F
:100E80001801D1F120008440F2D1CA40CB4012F0C9
:100E9000FF0213F0FF0330BCD01A7047FEE7704723
:100EA0002DE9F84F5A4A4FF00A0C4FF000094FF065
:100EB000010A4FF00F0E4FF0000B00269042554AEA
:100EC00008BF4FF0090C02444FEAB223092B38BF88
:100ED0004FEAB22C102E08BFBDE8F88F0A680AFA54
:100EE00006F52A4200F08E804C6844F01002122A67
:100EF00012D14A4B0BF01C020EFA02F403EA560719
:100F00000744D7F8208028EA04080C6904FA02F2A2
:100F100042EA08023A624C68032304F00302122CEE
:100F200003FA09F7036802FA09F223EA070342EA1F
:100F3000030202606FEA070214D80AFA04F313F0FE
:100F4000061F1FBF83681340CF6807FA09F71FBF4A
:100F50003B438360C4F30013B3401FBF4768AF43F4
:100F60003B434360C3681A408B6803FA09F31A4392
:100F7000C260E20046D5684A0BF00C040EFA04F792
:100F80000CFA04F41346126842F002021A601A685E
:100F9000234B02F0020298460092009A26F00302C8
:100FA000D358BB43234342F808301B4A4FF0B048A4
:100FB0001746D26F4C6842EA050314F4803F08BF1D
:100FC00022EA050314F4003FFB67D7F8802042EAC9
:100FD000050308BF22EA050314F4801FC7F8803018
:100FE000D8F8002042EA050308BF22EA050314F4FA
:100FF000001FC8F800303A6842EA050308BF22EA39
:1010000005033B6009F102090BF1040B013661E7AE
:10101000002402580000FEA704000058FCFFFF7FD8
:10102000080400584269514041617047002A0CBFD2
:10103000418301837047000005480068704700BF86
:101040001948034900780A6810440860704700BFD7
:101050000C07002080B5032000F092F8002000F07B
:1010600007F808B1012080BD00F020F8002080BD05
:1010700070B50D4E04464FF47A713078B1FBF0F044
:1010800052490968B1FBF0F001F054FA01250F2C28
:1010900008D838B94FF0FF3021460022002500F073
:1010A0004DF87460284670BD00000020BCB51A4899
:1010B000016841F002010160006800F00200019047
:1010C0000198032000F05CF8144D6FF00B00002134
:1010D00000226FF00B04A847601C00210022A847E3
:1010E000A01C00210022A847E01D00210022A847E3
:1010F00004F1080000210022A84704F10A000021A1
:101100000022A84704F10B00002100222B4602B068
:10111000BDE8B040184700BFF44402583D11000834
:10112000002808DB00F01F010122400902FA01F14A
:10113000014A42F82010704700E100E010B5164B5C
:101140001B68C3F3022E0EF1040CAEF103048EF003
:101150000703BCF1070F4FF0010C38BF0024042B2C
:1011600028BF04230CFA03F3013B19400CFA04F3E3
:10117000013BA1401A401143BDE8104002F088BB7A
:1011800005494FF6FF030A681A4060F30A22034834
:1011900010430860704700BF0CED00E00000FA0546
:1011A00080B500F01DFE08494FF48072096892FA7C
:1011B000A2F2B2FA82F201F47061D1400E4A515C9F
:1011C000C8400249086080BD184402580800002049
:1011D00080B500F0C5FD07491022096892FAA2F215
:1011E000B2FA82F201F07001D140034A515CC8406A
:1011F00080BD00BF204402589A390008B0B5324D76
:10120000AA6AA96AEB6AEC6B03F01003C4F3CC047E
:1012100014FB03F402F00303C1F3053200EE104A9D
:10122000022BB8EE400A0AD05BB92968294B11F0AD
:10123000200F1EBF2968C1F3C101CB4002E0244B3F
:1012400000E0224BA96B9FED242AB7EE003A6FF322
:101250005F2101EE101AB3FBF2F1AA6BB8EE411A4E
:1012600004EE101A00EE021AC2F34622B8EE440A47
:1012700031EE031A511C02EE101A21EE000AB8EEEC
:10128000422A80EE021ABCEEC11A80ED001AA96B48
:10129000C1F30641013101EE101AB8EE411A80EE99
:1012A000011ABCEEC11A80ED011AA96BC1F30661E7
:1012B000013101EE101AB8EE411A80EE010ABCEEBF
:1012C000C00A80ED020AB0BD0044025800093D008A
:1012D00040787D010090D00300000039B0B5324D58
:1012E000AA6AA96AEB6A6C6C03F48073C4F3CC0439
:1012F00014FB03F402F00303C1F3055200EE104A9D
:10130000022BB8EE400A0AD05BB92968294B11F0CC
:10131000200F1EBF2968C1F3C101CB4002E0244B5E
:1013200000E0224B296C9FED242AB7EE003A6FF3C0
:101330005F2101EE101AB3FBF2F12A6CB8EE411AEC
:1013400004EE101A00EE021AC2F34622B8EE440A66
:1013500031EE031A511C02EE101A21EE000AB8EE0B
:10136000422A80EE021ABCEEC11A80ED001A296CE6
:10137000C1F30641013101EE101AB8EE411A80EEB8
:10138000011ABCEEC11A80ED011A296CC1F3066185
:10139000013101EE101AB8EE411A80EE010ABCEEDE
:1013A000C00A80ED020AB0BD0044025800093D00A9
:1013B00040787D010090D003000000392DE9F04114
:1013C0000446C078AA4F000722D5606E4FEA30511C
:1013D000032908D8DFE801F0020A0F17F96941F480
:1013E0000031F9610FE04FF0010813E0201D0221E8
:1013F00001F048FA04E004F12400022101F0B6FAF9
:10140000804638B9606E396C21F440110843386465
:101410004FF000086078C00701D1464626E0606DB5
:1014200004280BD84646DFE800F0030B1016160020
:10143000F869464640F40030F8610CE001260BE004
:10144000201D002101F01EFA04E004F12400002117
:1014500001F08CFA064616B148EA060806E0386C38
:10146000616D002620F0070008433864607880072B
:1014700026D5A06D4FEAB010042809D8DFE800F0A7
:10148000030A0F151500F86940F40030F8610CE00C
:1014900001260BE0201D002101F0F4F904E004F125
:1014A0002400002101F062FA064616B148EA060857
:1014B00006E0386CA16D002620F4E0700843386423
:1014C0006078400728D5D4F8A4004FEA705004286B
:1014D00009D8DFE800F0030A0F151500F86940F499
:1014E0000030F8610CE001260BE0201D002101F026
:1014F000C9F904E004F12400002101F037FA06469E
:1015000016B148EA060807E0B86CD4F8A410002623
:1015100020F460000843B8646078000728D5D4F848
:10152000A8004FEA3060042809D8DFE800F0030A79
:101530000F151500F86940F40030F8610CE0012641
:101540000BE0201D002101F09DF904E004F12400CE
:10155000002101F00BFA064616B148EA060807E03A
:10156000B86CD4F8A810002620F0E0600843B864F6
:10157000E07880071FD5A06C4FEA3010032808D808
:10158000DFE800F00E02090EF86940F40030F8615F
:1015900006E0012605E0201D022101F073F9064650
:1015A00016B148EA060806E0F86BA16C002620F0A8
:1015B00030000843F8636078C00626D5E06D4FEA36
:1015C0003030042809D8DFE800F0030A0F151500B1
:1015D000F86940F40030F8610CE001260BE0201DB2
:1015E000002101F04FF904E004F12400002101F092
:1015F000BDF9064616B148EA060806E0386CE16D0A
:10160000002620F4E040084338646078800621D545
:10161000206E4FEA3040052809D8DFE800F01003BB
:101620000A101010201D012101F02CF906E00126FE
:1016300006E004F12400012101F098F9064616B1F4
:1016400048EA060806E0386C216E002620F4E02007
:10165000084338646078400625D5D4F8AC004FEADA
:10166000307005280BD8DFE800F012050C121212BA
:1016700010440258201D012101F004F906E0012662
:1016800006E004F12400012101F070F9064616B1CC
:1016900048EA060807E0B86CD4F8AC10002620F041
:1016A000E0400843B864607800061DD5E06E78B16C
:1016B000B0F1005F07D0B0F1805F12D1F86940F45B
:1016C0000030F86104E0201D012101F0DBF806463E
:1016D00046B9386CE16E002620F04050084338646B
:1016E00002E0012648EA0608E078C0071DD0606CD9
:1016F000032808D8DFE800F00E02090EF86940F46C
:101700000030F86106E0012605E0201D022101F00D
:10171000B9F8064616B148EA060806E0F86B616CAF
:10172000002620F003000843F863A07840061AD58D
:10173000D7F8F0033D4640F48070C7F8F003FFF798
:101740007BFC07462846D5F8F00310F4807F06D1CD
:10175000FFF772FCC01B6428F4D9032600E0A6B191
:1017600048EA06082F462078C0074DD0A06F4FEA00
:10177000F000052835D8DFE800F03C03363C3C3C5F
:10178000201D012101F07EF832E0296ED4F8B0006E
:101790002F46414011F4407F0BD0396E3A6E42F42F
:1017A000803221F440713A663A6E22F480323A6611
:1017B0003966B0F5807F40F0D781FFF73DFC0646E3
:1017C00041F288372846286E10F0020F40F0C98198
:1017D000FFF732FC801BB842F4D948F00308032617
:1017E000C0E7012606E004F12400012101F0BEF863
:1017F000064616B148EA060806E0786CA16F002696
:1018000020F0380008437864207880071FD5606F87
:10181000052809D8DFE800F010030A101010201D79
:10182000012101F02FF806E0012606E004F1240072
:10183000012101F09BF8064616B148EA060806E0C9
:10184000786C616F002620F00700084378642078E8
:10185000400721D5D4F89000052809D8DFE800F02A
:1018600010030A101010201D012101F00BF806E0F2
:10187000012606E004F12400012101F077F8064674
:1018800016B148EA060807E0B86CD4F890100026B4
:1018900020F007000843B8642078800623D5D4F8E8
:1018A0008C004FEA3070052809D8DFE800F01003FB
:1018B0000A101010201D002100F0E4FF06E00126B0
:1018C00006E004F12400022101F050F8064616B1AA
:1018D00048EA060807E0786CD4F88C10002620F05F
:1018E000E040084378642078400623D5D4F8980077
:1018F0004FEAB020052809D8DFE800F010030A10ED
:101900001010201D002100F0BDFF06E0012606E0BA
:1019100004F12400022101F029F8064616B148EA34
:10192000060807E0B86CD4F89810002620F4E050C0
:101930000843B8642078000623D5D4F89C004FEA09
:101940007030052809D8DFE800F010030A101010E5
:10195000201D002100F096FF06E0012606E004F1BC
:101960002400022101F002F8064616B148EA0608F2
:1019700007E0B86CD4F89C10002620F460400843BF
:10198000B864206810F0080F12D0D4F88010B1F5B8
:10199000805F08D104F12400022100F0E7FF48EA4B
:1019A0000008206804E07A6C22F440521143796404
:1019B000C10612D5D4F89410B1F5807F08D104F196
:1019C0002400022100F0D2FF48EA0008206804E069
:1019D000BA6C22F440721143B964000320D5D4F8E4
:1019E000A000B0F5003F0ED0B0F5803F05D0A0B903
:1019F000201D002100F046FF04E004F12400022134
:101A000000F0B4FF06464EB9B86CD4F8A01000261A
:101A100020F440300843B86402E0012648EA060892
:101A2000A078400722D5D4F88400B0F5401F10D02C
:101A3000B0F5001F07D0B0F5801F14D1F86940F44D
:101A40000030F86105E004F12400012100F08EFF70
:101A500006464EB9786CD4F88410002620F4401065
:101A60000843786402E0012648EA0608A078C00727
:101A70001AD0E06CB0F5803F05D090B9F86940F419
:101A80000030F86104E0201D022100F0FBFE064654
:101A900046B9F86BE16C002620F480300843F86307
:101AA00002E0012648EA0608206810F0005F07D02F
:101AB00004F12400022100F059FF48EA00082068E0
:101AC000810319D5E16F6FF0010202EB3122022A86
:101AD00008D34FEA31222AB1012A0AD1FA6942F425
:101AE0000032FA6136B97A6C22F44072114379649B
:101AF00002E0012648EA0608C10205D5396C226FCA
:101B000021F0004111433964C10006D53968D4F889
:101B1000B42021F4804111433960810205D5396C2C
:101B2000A26E21F0807111433964410008D53968F3
:101B300021F400413960D4F8B8103A681143396093
:101B4000B0F1FF3F05DCF86B216D20F040500843F9
:101B5000F863B8F1000F18BF4FF001084046BDE828
:101B6000F081D4F8B0002F46396800F440720026A6
:101B7000B2F5407F21F47C5102BF054A02EA1012FF
:101B800011436FF31F303960396E08433866EAE558
:101B9000CFFFFF00704700002DE9F0470D466B496D
:101BA0000446086800F00700A84209D2086820F03F
:101BB000070028430860086800F00700A84267D1C2
:101BC0002068B94F8A4610F0020F05D0B969E26863
:101BD00021F00F011143B961C0074AD1DAF80000C2
:101BE00000F00700A8420CD9DAF8000020F0070046
:101BF0002843CAF80000DAF8000000F00700A84205
:101C000046D1206810F0040F05D0B969226921F08F
:101C100070011143B961010705D5F969626921F0C5
:101C200070011143F961C10605D5F969A26921F472
:101C3000E0611143F961800605D5386AE16920F059
:101C400070000843386200F0CBF8B9694FF4807235
:101C5000002792FAA2F2B2FA82F201F47061D14046
:101C60005E4A515CC8403A4908600020FFF700FA1C
:101C70000FE0B869A16820F470600843B86160683B
:101C8000032809D0022858D1396811F4003F07D140
:101C90000127F8B2BDE8F087396811F0007FF7D06E
:101CA000396921F0070108433861FFF7C5F9064695
:101CB0006068B94641F28838032812D002281FD044
:101CC00001282CD1D9F810004F4600F03800082820
:101CD0003FF484AFFFF7B0F9801B03274045F1D9EB
:101CE000D7E7D9F810004F4600F0380018283FF425
:101CF00075AFFFF7A1F9801B03274045F1D9C8E76D
:101D0000D9F810004F4600F0380010283FF466AFB5
:101D1000FFF792F9801B03274045F1D9B9E7D9F8BD
:101D200010004F4610F0380F3FF458AFFFF784F91A
:101D3000801B03274045F2D9ABE73968012802D15F
:101D4000C905A5D5ACE74907A2D5A9E700200052EF
:101D5000080000205448016841F4002101607047E8
:101D600080B5FFF71DFA08490122096892FAA2F22C
:101D7000B2FA82F201F00F01D140184A515CC8401A
:101D80000249086080BD00BF184402580C000020C2
:101D900080B5FFF7E5FF10491022096892FAA2F218
:101DA000B2FA82F201F07001D1400C4A515CC84095
:101DB00080BD00BF80B5FFF7D3FF07494FF48072A5
:101DC000096892FAA2F2B2FA82F201F4E061D1401B
:101DD000024A515CC84080BD1C4402589A39000830
:101DE00031490869C0F3C2023048032A0FD0022AE1
:101DF00004BF2F4870474AB90A682E4812F0200FD6
:101E00001FBF0968C1F3C101C8407047704780B562
:101E1000D1F828E0D1F828C0CB6A4A6B03F001035F
:101E20005B4203EAD2020EF003036FF35F32022B30
:101E300000EE102ACCF30512B8EE400ABDE880404F
:101E40000AD053B90B681B4813F0200F1EBF0B6854
:101E5000C3F3C103D84000E015480B6B096B9FED3D
:101E6000162AB0FBF2F0B7EE003A04EE100A6FF358
:101E70005F2301EE103AB8EE411AC1F3462100EE9D
:101E8000021A481CB8EE440A02EE100A31EE031A98
:101E9000B8EE422A21EE000A80EE020ABCEEC00A29
:101EA00010EE100A704700BF0044025800093D00C0
:101EB00040787D010090D0030000003910B5064C39
:101EC000206810F4806F08BF10BDFFF763FE4FF469
:101ED0008060606010BD00BF64440258F8B50446DD
:101EE0000078D34EC0074FD0306900F0380010287A
:101EF00007D1306810F4003F46D06068002843D115
:101F00004EE1306900F03800182804D1B06A00F0C2
:101F100003000228EDD0606868B1B0F5803F06D0BC
:101F20003168B0F5A02F1BD141F4802030603068BB
:101F300040F480301AE0306820F48030306030683F
:101F400020F480203060FFF777F80546306810F401
:101F5000003F19D0FFF770F8401B6428F6D934E130
:101F600021F480303060306820F480203060FFF74A
:101F700063F80546306810F4003F05D1FFF75CF8C0
:101F8000401B6428F6D920E1207880075ED53069AF
:101F900010F0380F1CD0306900F03800182804BF4A
:101FA000B06A10F0030F13D0E068316850B321F02D
:101FB000190108433060FFF73FF80546306810F01C
:101FC000040F2FD1FFF738F8401B0228F6D9FCE0A8
:101FD0003168E06811F0040F02D0002800F0E080C2
:101FE000316821F0190108433060FFF725F80546F4
:101FF000306810F0040F1CD1FFF71EF8401B0228B8
:10200000F6D9E2E021F001003060FFF715F805464F
:10201000306810F0040F19D0FFF70EF8401B0228AB
:10202000F6D9D2E0706821694FF47C3292FAA2F2BC
:1020300005E0706821694FF47C3292FAA2F2B2FA9C
:1020400082F220F47C309140084370602078C00612
:102050004ED5306900F0380008280ED1306810F4F1
:10206000807F1CBFE069802840F09A807068216AF8
:102070004FF0F84292FAA2F233E0306900F03800F3
:10208000182804D1B06A00F003000128E6D0E16905
:10209000306879B140F080003060FEF7CDFF054632
:1020A000306810F4807F16D1FEF7C6FF401B02286F
:1020B000F6D98AE020F080003060FEF7BDFF0546CB
:1020C000306810F4807F13D0FEF7B6FF411B032069
:1020D0000229F5D97AE07068216A4FF0F84292FA45
:1020E000A2F2B2FA82F220F0F84091400843706008
:1020F0002078000722D56169706F79B140F0010046
:102100007067FEF799FF0546706F10F0020F15D14A
:10211000FEF792FF401B0228F6D956E020F001009E
:102120007067FEF789FF0546706F10F0020F05D04B
:10213000FEF782FF401B0228F6D946E02078800691
:1021400022D5A169306879B140F480503060FEF743
:1021500073FF0546306810F4005F15D1FEF76CFF81
:10216000401B0228F6D930E020F480503060FEF7A2
:1021700063FF0546306810F4005F05D0FEF75CFF92
:10218000401B0228F6D920E0207840070AD4676A6D
:10219000002F00F0C580306900F03800182827D1E2
:1021A000012013E0D6F8000440F48070C6F8000463
:1021B000FEF742FF0546D6F8000410F4807F08D1F0
:1021C000FEF73AFF401B6428F5D90320C0B201B0E6
:1021D000F0BDA06870B3012806D0316F052840F02B
:1021E000A18041F004003067306F40F001009FE0B3
:1021F000306820F080703060FEF71EFF0546022F29
:102200000AD1306810F0007F2CD0FEF715FF411B7B
:1022100003200229F5D9D9E7306810F0007F00F0DB
:102220007F80FEF709FF411B03200329F4D3CDE78C
:1022300000440258306F20F001003067306F20F00A
:1022400004003067FEF7F8FE054641F28837306F2C
:1022500010F0020F9BD0FEF7EFFE411B0320B942A6
:10226000F5D9B3E7B06A40F2F33104F130034FF42B
:10227000FE078843D4E90A12084340EA0210B0621C
:102280000FCB7F3100F2FF107F3249026FF35F20E6
:1022900007EA024289B2084303F17F0110434FF07D
:1022A000FE4202EA016108434FF6F8713063706B39
:1022B000A26C884391FAA1F1B1FA81F102FA01F11D
:1022C00008437063F06A216C20F00C000843F06250
:1022D000F06A616C20F002000843F062F06A40F49A
:1022E0008030F062F06A40F40030F062F06A40F44E
:1022F0008020F062F06A40F00100F062306840F047
:1023000080703060FEF798FE0446306810F0007F61
:1023100006D1FEF791FE011B03200229F5D955E7EE
:10232000002053E721F001003067306F20F00400F7
:102330003067FEF781FE054641F28837306F10F0B6
:10234000020F7FF424AFFEF777FE411B0320B94252
:10235000F4D93BE77F4904280A6822F0040308BF48
:1023600042F004030B6070472DE9F843DFF8A481C5
:102370006949D8F800008946884203D10020C8F88E
:1023800000000DE04CF25031884209D163490A68DF
:1023900032B1634801220260002008604CF25030E4
:1023A000604DE96AE1B1A968884219D15C480068CA
:1023B000B0B195F828005C4C40F00201022907D129
:1023C00020464FF480410122FEF730FE95F82800A8
:1023D000012805D120464FF480410022FEF726FE59
:1023E000524CE06A002843D0D8F80000A168884227
:1023F0001ED1A26961684B46104401EB09030244F7
:102400009A42C8BF0846A060474894F8281031B1E6
:10241000022908D14FF40041FEF704FE08E04FF412
:102420000041012202E04FF400410022FEF7FEFDD0
:10243000D8F80000216988421AD1A269E1684B46A8
:10244000104401EB090302449A42C8BF08462061C8
:1024500094F82800012805D050B933484FF40041C2
:10246000002203E030484FF400410122FEF7DEFD78
:102470002B480068002846D02D4E0027002440E05D
:10248000F519E86AD8B3A968D8F8000088421AD1CB
:10249000AA6969684B46104401EB090302449A4259
:1024A000C8BF0846A86095F8280028B1022807D1BF
:1024B000204601F0B3F906E0204601F091F902E070
:1024C000204601F0C5F92969D8F80000884216D1E4
:1024D000AA69E9684B46104401EB090302449A4299
:1024E000C8BF0846286195F82800012804D030B9F3
:1024F000204601F0ADF902E0204601F071F93037D5
:102500000134C02FBCD1D8F800000130C8F8000059
:10251000BDE8F88388060020A08601007000002036
:1025200074000020AC000020001C02587C00002039
:10253000C8050020411E0020B0EB116F1CBF012018
:102540007047044AF023516003490B7007219060E3
:102550001160704710E000E023ED00E0FFF704BFDA
:1025600010B50446A8B194F8790028B9002084F881
:102570007800204600F026F8242084F879002068AE
:10258000016821F001010160204600F011FE0128E0
:1025900001D1012010BD606B10B1204600F06AFD32
:1025A0002068416821F490414160816821F02A014E
:1025B0008160016841F0010101602046BDE81040E2
:1025C00000F0C2BD70472DE9F843044690F8790049
:1025D000994617460E46202806D101252EB127B16F
:1025E00094F87800012804D10225E8B201B0BDE8D2
:1025F000F0830020E067012084F87800212084F82F
:102600007900FEF719FD8046A4F86070A4F86270A6
:102610001FE0B4F862008021002243460138A4F88C
:1026200062002046CDF8009001F040F8F8B9A068AB
:10263000B0F5805F04BF2069002804D0206816F838
:10264000011B018505E036F8021B20686FF35F214E
:102650000185B4F862000028DBD120464021002229
:102660004346CDF80090002501F020F808B103257D
:10267000BBE7202084F8785084F87900B5E7FEE7BE
:1026800070B586B07A48284C002601AD816841F4C7
:1026900080218160816801F48021019101990168A4
:1026A00041F002010160016801F00201019101990C
:1026B000016841F0020101602946006800F0020053
:1026C00001900198022002904FF480600190032055
:1026D00003960490072005902046FEF7E1FB4FF497
:1026E0000060294601902046FEF7DAFB27200121F1
:1026F0000022FEF723FD2720FEF712FD0B4C0C49AC
:102700004FF4E1300C22C4E9001004F1180020213C
:10271000C4E90266C4E90462FEF760F82046FFF7E8
:102720001FFF06B070BD00BF000402588C060020D9
:1027300000480040FEE7FFF7C1BB00002DE9F04F65
:1027400087B04B4800274B4D4B4E00224FF01009ED
:102750000697CDE90477016841F001010160016845
:1027600001F0010101910199016841F0010101604D
:10277000016801F0010101910199016841F0010135
:102780000160016801F0010101910199016841F0C6
:1027900080010160016801F08001019101990168E7
:1027A00041F080010160016801F08001019101990F
:1027B000016841F0800101601021006800F0800094
:1027C000019001982846B0472846202100224FF06A
:1027D0002008B0472846402100224FF0400BB04768
:1027E00005F5E0544FF4005100222046B047204642
:1027F0004FF480410022B04720464FF400410022B0
:10280000B047CDF80890DFF8749002AE4FF0010A9F
:1028100028463146CDF80CA00597C84728463146D2
:10282000CDE9028A0597C84728463146CDE902BA64
:102830000597C8474FF40050CDF80CA031460290E0
:1028400020460597C8474FF48040CDF80CA031468C
:10285000029020460597C8474FF40040CDF80CA0E1
:102860003146029020460597C84707B0BDE8F08F73
:10287000E0440258000002582D100008A10E000884
:1028800070470000F8B5734F05460C46B86A00F073
:102890000300032801D1012064E0386820F0806043
:1028A0003860FEF7C9FB0646386810F0006F05D0A7
:1028B000FEF7C2FB801B0228F6D950E0B86A2968EF
:1028C0002B1D4FF4FE06002C20F47C3040EA013032
:1028D000B8620FCB01F17F0100F2FF1002F17F021D
:1028E0004FEA41216FF35F2006EA024289B240EAD3
:1028F000010003F17F0140EA02004FF0FE4202EACC
:10290000016140EA0100B863F86A696920F0C0001B
:1029100040EA0100F862F86AA96920F0200040EA64
:102920000100F86207D0F86A012C14BF40F40010CF
:1029300040F4801002E0F86A40F40020F862386841
:1029400040F080603860FEF777FB0446386810F08E
:10295000006F06D1FEF770FB001B0328F6D303209F
:1029600000E00020C0B201B0F0BD00BFF8B5394FA3
:1029700005460C46B86A00F00300032801D1012087
:1029800064E0386820F080503860FEF755FB06465A
:10299000386810F0005F05D0FEF74EFB801B022860
:1029A000F6D950E0B86A29682B1D4FF4FE06002CBA
:1029B00020F07C7040EA0150B8620FCB01F17F013A
:1029C00000F2FF1002F17F024FEA41216FF35F2016
:1029D00006EA024289B240EA010003F17F0140EABF
:1029E00002004FF0FE4202EA016140EA0100386451
:1029F000F86A696920F4406040EA0100F862F86A08
:102A0000A96920F4007040EA0100F86207D0F86A72
:102A1000012C14BF40F0807040F4000002E0F86A1E
:102A200040F48000F862386840F080503860FEF76B
:102A300003FB0446386810F0005F06D1FEF7FCFA8D
:102A4000001B0328F6D3032000E00020C0B201B031
:102A5000F0BD00BF004402582DE9F04F9DB0024682
:102A60007D38032880F0BF81DFF834B4DFF82C74A0
:102A70000DF1200E0BF150000BF13C080BF1580149
:102A80000BF1640201970BF10C090BF134030BF10C
:102A9000380407F1A40607F1900507F1AC0CCDE965
:102AA0001821CDE91A800BF168000BF120010BF120
:102AB0002802CDE91056CDE9124307F1600607F16F
:102AC0007C0507F1880407F17403CDE91429CDE9E9
:102AD000161007F18C0007F1B80107F1BC02AEE84F
:102AE000710007F14400CDE90C32CDE90E1CDFF88E
:102AF000B81307F12C0207F12803079007F1300003
:102B0000069007F14C00059007F15800049007F17A
:102B10005C00039007F11400029007F11C00009084
:102B2000DFF88003FDF732FD002403E0381900F0E0
:102B300029FE3034C02CF9D1484600F023FE40462F
:102B400000F020FEDBF86800D84CA8B19BF86400C8
:102B500040F00201022907D120464FF480410022B3
:102B6000FEF764FA9BF86400012805D120464FF473
:102B700080410122FEF75AFADBF83800A8B19BF831
:102B8000340040F00201022907D120464FF40041F1
:102B90000022FEF74BFA9BF83400012805D12046AD
:102BA0004FF400410122FEF741FAF86AA8B197F804
:102BB000280040F00201022907D1A4F5E0501021BD
:102BC0000022FEF733FA97F82800012805D1A4F572
:102BD000E05010210122FEF729FAF86DA8B197F80C
:102BE000580040F00201022907D1A4F5E05020214D
:102BF0000022FEF71BFA97F85800012805D1A4F52A
:102C0000E05020210122FEF711FAD7F88C00A8B17C
:102C100097F8880040F00201022907D1A4F5E0509E
:102C200040210022FEF702FA97F88800012805D11A
:102C3000A4F5E05040210122FEF7F8F9D7F8BC00D6
:102C4000A8B197F8B80040F00201022907D1204648
:102C50004FF400510022FEF7E9F997F8B800012877
:102C600005D120464FF400510122FEF7DFF997F815
:102C70002830FA6AD7E905C1FE69D7E90054B86877
:102C8000DFF82C92CDE90065CDE902C189498A4E71
:102C9000CDE904404846B047884948468847DFF8B0
:102CA0002082DFF820A282B249464FF4FA63404600
:102CB000D047FA6D97F85830D7E911C1FE6CD7E9C3
:102CC0000C54B86BCDE90065CDE902C1CDE90440F3
:102CD000794C7D4948462646A047784C4846A0474F
:102CE00082B2404649464FF4FA63D047D7F88C2069
:102CF00097F88830D7E91DC1FE6FD7E91854B86E30
:102D0000CDE90065CDE902C170496B4ECDE90440C3
:102D10004846B04769494846884782B240464946D6
:102D20004FF4FA63D04707F1A406D7F8BC2097F810
:102D3000B8300DF1080C43CED7E92454D7F8987079
:102D4000CDE90065ACE8930061495B4F4846B84760
:102D50005A494846884782B2404649464FF4FA638A
:102D6000D0470BF12007DBF838209BF834300DF109
:102D7000080C83CFDBE90365DBF81440CDE900766E
:102D8000ACE8230053494C4F48460594B8474B499B
:102D90004846884782B2404649464FF4FA63D047D6
:102DA0000BF15007DBF868209BF864300DF1080C3C
:102DB00083CFDBE90F65DBF84440CDE90076ACE872
:102DC000230045493C4F48460594B8473B4948468F
:102DD000884782B2404649464FF4FA63D047012003
:102DE000CBF808004EE0D01E012835D82C4DA8683D
:102DF000C0B32C4968684A78732A08BF002801D1FB
:102E000001222A604978E8B365293BD12348002490
:102E10006C6000F128060DE0706848B13078012838
:102E200003D1204600F0DCFC02E0204600F010FD5B
:102E300030360134042CEFD1A86E18B395F86450E5
:102E40001DB31A4C4FF4804101222046FEF7EEF8E4
:102E5000012D17D0204619E0154C27A12046FDF77B
:102E600011FB05E0124C1DA11C222046FDF771FC50
:102E70002046FDF74FFC82B2114821464FF47A7389
:102E8000FFF7A1FB1DB0BDE8F08F08484FF480416B
:102E900000221DB0BDE8F04FFEF7C8B8C8050020FD
:102EA00070000020C80400201C3D0008001C0258CF
:102EB000E0000020C239000885040008150700085A
:102EC0008C060020C72500084E3A0008DA3A0008B0
:102ED000663B0008F23B0008823C0008506C6561CC
:102EE000736520436F6E666967204265666F726521
:102EF0002053746172740A0057524F4E47204C455C
:102F00004E47544820504C5A20434845434B205488
:102F1000484520494E50555425640A00704780B5F5
:102F2000FEF78EF8BDE88040FFF718BB70B5CCB057
:102F300039A84C21FDF752FC31A82021FDF74EFCA9
:102F400002A8BC21FDF74AFC2D48016821F00401CC
:102F5000016000210191C16841F44041C160C16834
:102F600001F4404101910199C16811F4005FFBD067
:102F70002449022308240025425863F301024250E9
:102F80004FF480303A90012039900520CDE942334A
:102F90004490A020CDE9450339A8CDE947334994B1
:102FA000CDE94A55FEF79AFF3F2003264FF4806192
:102FB00031904020CDE932653494CDE93500CDE93A
:102FC000371031A80221FEF7E7FD02A80296CDE9ED
:102FD0001F55FEF7F3F9FEF7BDFE0B480B490068DD
:102FE000B0FBF1F0FFF7A6FA0420FFF7B3F94FF0BA
:102FF000FF3000210022FEF7A1F84CB070BD00BFE9
:103000000C4802581CFCFFFF08000020A0860100AD
:1030100010B51448154CD0F8801041F47001C0F878
:10302000801011490A6842F001020A6000220A6118
:103030000B6823400B608A61CA610A628A62CA62B5
:103040000A634A638A63CA630A644A640B6823F4A6
:1030500080230B600A66064901220A604FF0006176
:10306000016010BD08ED00E0004402587FEDF6EA73
:1030700008810051416B11F0010F08D002685368BC
:10308000D0F838C023F4003343EA0C0353608A07B6
:1030900008D502685368D0F83CC023F4803343EA73
:1030A0000C0353604A0708D502685368D0F840C043
:1030B00023F4802343EA0C0353600A0708D502680F
:1030C0005368D0F844C023F4004343EA0C03536030
:1030D000CA0608D502689368D0F848C023F4805324
:1030E00043EA0C0393608A0608D502689368D0F817
:1030F0004CC023F4005343EA0C03936080B54A06A6
:1031000015D5D0F800E0DEF804C0036D2CF4801271
:10311000B3F5801F42EA0302CEF8042007D1DEF89F
:103120000420436D22F4C0021A43CEF8042009069D
:10313000BDE8804058BF704701684A68806D22F43E
:103140000022104348607047BCB504460020E06789
:10315000FDF772FF05462068016811F0080F0AD0DC
:1031600012484FF4001100222B460090204600F038
:103170009DFA70B92068006810F0040F0BD00B485E
:103180004FF4800100222B460090204600F08EFA7A
:1031900008B1032007E02021002084F8791084F88A
:1031A000780084F87A10C0B202B0B0BDFFFFFF0112
:1031B000F0B587B00446D0F81CC0816A00689E4A0A
:1031C000A368D4E9047605680B433B4333439B4E25
:1031D0002A4043EA0C031A4302604268E36822F47F
:1031E00040521A43A6F50E3342609842A7691CBFAD
:1031F000226A1743B1F1005F02BFD4E90B123943D1
:1032000041EA020781688E4A114039438160C26AEF
:10321000616A22F00F020A43C2628A4A904228D0B1
:10322000894A904231D0894A90423AD0884A9042A5
:1032300043D0884A904200F04B80874A904200F089
:103240005280864A904200F05B80854A904200F0AE
:103250006480844A904240F06D80834A1268C2F3D1
:10326000C207052F00F26680DFE807F06266686A31
:103270006C6E7D4A126802F00707052F00F25A8033
:10328000DFE807F03C5A5C5E6062774A126802F041
:103290000707052F00F24E80DFE807F0304E50524E
:1032A0005456714A126802F00707052F00F2428057
:1032B000DFE807F024424446484A6B4A126802F0AD
:1032C0000707052F36D8DFE807F01937393B3D3FB0
:1032D000654A126802F00707052F2BD8DFE807F0D0
:1032E0000E2C2E303234604A126802F00707052F88
:1032F00020D8DFE807F0032123252729002724E031
:10330000594A526802F00707052F13D8DFE807F083
:10331000031416181A1C022717E0534A1268C2F346
:10332000C207052F06D8DFE807F00307090B0D0FCA
:1033300001270AE0802708E0042706E0402704E090
:10334000082702E0102700E02027984214D001252A
:10335000BCF5004F21D10020082F2ED8DFE817F050
:103360000900AF0027012701B90027012701270124
:10337000C500FEF70DFDA4E0C94D402F44D0042F39
:1033800047D0082F4BD0102F53D0202F6ED0022FB4
:1033900040F08081FDF71CFF3FE0082F20D8DFE8D8
:1033A00017F00900AD007A017A01BE007A017A01B6
:1033B0007A01CF00FEF7ECFCA2E0102F00F0CA80EB
:1033C000202F00F0CC80402F40F0F18001A8FDF7C5
:1033D00085FF606AB14A616832F81000029A81E0A4
:1033E000102F00F0C780202F00F0C980402F40F040
:1033F000528101A8FDF772FFD4E90001626AA74B70
:1034000033F81220029B94E001A8FDF767FF0298B1
:1034100003E004A8FDF7F2FE059848BBE2E031683E
:10342000A04811F0200F1EBF3168C1F3C101C84090
:103430001EE028461CE000BFF369FFCF004402589D
:10344000FFF4FF110044004000480040004C0040E1
:103450000050004000780040007C0040000C005804
:103460000014014000100140544402584FF4004041
:10347000324666682B46012506EB46018842C0F0BD
:103480000A813103884200F20681402F00F0AC80AF
:10349000042F00F0B380082F00F0BA80102F00F046
:1034A000C180202F00F0C580022F40F0D180FDF7B1
:1034B0008FFE616A794A666832F81120D4E0FEF71F
:1034C00079FC626A754B616833F81220B0FBF2F048
:1034D00067E004A8FDF792FE606A704A616832F8FE
:1034E0001000059AB2FBF0F05BE0306810F0200F9E
:1034F0004BD16A4830F811006A494FE0FEF75AFC98
:10350000636A664F6268216837F81330B0FBF3F0E6
:1035100000EB5200B0FBF2F080B2C86062E004A899
:10352000FDF76CFED4E90001626A5C4B33F81220AF
:10353000059BB3FBF2F202EB5102B2FBF1F14FE05B
:103540003268334612F0200F3AD1544A32F8111043
:10355000544A3EE0514830F8110051491EE04F48AE
:1035600030F811004FF40041B1FBF0F06168420007
:10357000480818E0494A32F81110494A29E0474AF8
:1035800032F811104FF4004223E04448454A30F825
:1035900011003168C1F3C10122FA01F1B1FBF0F071
:1035A000616840004A0810440025B0FBF1F04FF676
:1035B000F0710140C0F3420008432168C8606AE02E
:1035C000364A32F811101A68364BC2F3C10223FA98
:1035D00002F2B2FBF1F1626801EB5201B1FBF2F1D0
:1035E00089B2C160002556E001A8FDF777FE606A48
:1035F0002A49666831F81020029835E004A8FDF7E2
:10360000FDFD606A2549666831F8102005982BE0B9
:10361000106810F0200F1DD1606A204931F8102089
:10362000204821E0606A1D4931F81000B3FBF0F03A
:1036300007E0606A194931F810004FF40041B1FB0E
:10364000F0F00002002500EB5600B0FBF6F01CE0A5
:1036500001251AE01068616A104A32F811201149F8
:10366000C0F3C10021FA00F0002100230025FCF77F
:1036700091FE09023246002341EA1061000210EB7C
:10368000560041F10001FCF785FE074AA0F54071A4
:10369000914292D90125284607B0F0BDAA39000809
:1036A00000093D000090D003FFFC0F002DE9F84316
:1036B000DDF82090984616460F46044609F10105AC
:1036C0002068C1693940C91BB1FA81F14909B14289
:1036D0001DD1002DF4D0B9F1000F06D0FDF7ACFCE0
:1036E000A0EB08004845EBD92068016821F4D071AF
:1036F0000160816821F0010181602020002184F8AF
:10370000790084F8781084F87A00032000E0002023
:10371000C0B201B0BDE8F0838D480068C16911F006
:10372000200F14D1C16911F0100F08BF704710B5F8
:103730001021114C0162016821F010010160208804
:10374000FFF78AF900202080BDE8104013E00A4905
:10375000828C0B882BB910230362036843F010039B
:1037600003600888FE2806D80888044B1A54088885
:103770000130088070477047DC000020C80400203A
:10378000FEE700002DE9F04101684269134DD0F8D1
:103790001CE04FF00A0C91FBFCF392FBFCF811F1DA
:1037A0000A0F95FBFEF403EB0502194603EB08062E
:1037B0001546D8BF21443746C8BF1D46B6F1FF3F66
:1037C000DCBF274402EB0806C0E90031C0E902571C
:1037D000C0E904688461BDE8F08100BFA0860100F3
:1037E000032888BF7047DFE800F00214070C274861
:1037F00010210122FDF71ABC244840210122FDF7C7
:1038000015BC22484FF40051012200F5E050FDF7AD
:103810000DBC1E4820210122FDF708BC032888BFEB
:103820007047DFE800F00211060A18481021FDF782
:10383000F9BB16484021FDF7F5BB14484FF4005181
:1038400000F5E050FDF7EEBB10482021FDF7EABB84
:10385000032888BF7047DFE800F00214070C0B480C
:1038600010210022FDF7E2BB084840210022FDF7AD
:10387000DDBB06484FF40051002200F5E050FDF793
:10388000D5BB024820210022FDF7D0BB0000025822
:1038900010B52D4C054A00F00F03B0F1FF3F234453
:1038A000C8BF83180801187010BD00BF00E400E015
:1038B00070B52548BFF34F8F002143F6E07CBFF37E
:1038C0006F8FC0F83C12BFF34F8FBFF36F8F02684A
:1038D00042F4003202601D4ABFF34F8FBFF36F8F77
:1038E0000167BFF34F8FC16E62EAD10EC1F34E3252
:1038F000C9088B070CEA42111C46754644EA0106CA
:1039000004F140440135C0F84C62F7D1511E002A41
:103910000A46EFD1BFF34F8F016841F48031016057
:10392000BFF34F8FBFF36F8FFDF794FBFFF7FEFAE6
:10393000FEF7A6FEFEF702FF05480068016841F0A9
:1039400020010160FEE700BF14ED00E000FCFFFF76
:103950008C06002010B500290AD00878002807D06E
:1039600005487844FDF75CFA002801D0002010BD1E
:103970000248784410BD0000360400002E04000008
:10398000F1EE100A4FF6FF71C0F2C03120EA0100DB
:1039900040F04070E1EE100A7047000000000102A4
:1039A00003040102030406070809010002000400E1
:1039B000060008000A000C001000200040008000F3
:1039C0000001546865206368616E6E656C2031206B
:1039D00069732025640A746865206D6F64652069C9
:1039E000733A2025640A54686520667265712069FF
:1039F000733A2025640A546865206F66667365749F
:103A00002069733A2025640A5468652077696474D4
:103A1000682069733A2025640A2047617020697321
:103A20003A2025640A2046697273742065646765CC
:103A30002069733A2025640A2043757272656E749A
:103A40002065646765206973203A25640A0054681C
:103A500065206368616E6E656C2032206973202575
:103A6000640A746865206D6F64652069733A202567
:103A7000640A54686520667265712069733A20256E
:103A8000640A546865206F66667365742069733ACA
:103A90002025640A54686520776964746820697316
:103AA0003A2025640A204761702069733A20256412
:103AB0000A20466972737420656467652069733AE9
:103AC0002025640A2043757272656E7420656467F0
:103AD00065206973203A25640A005468652063688C
:103AE000616E6E656C20332069732025640A7468EA
:103AF00065206D6F64652069733A2025640A5468F7
:103B00006520667265712069733A2025640A5468DD
:103B100065206F66667365742069733A2025640AB0
:103B20005468652077696474682069733A20256455
:103B30000A204761702069733A2025640A2046698B
:103B400072737420656467652069733A2025640A7E
:103B50002043757272656E742065646765206973B1
:103B6000203A25640A00546865206368616E6E65BA
:103B70006C20342069732025640A746865206D6F99
:103B800064652069733A2025640A5468652066726A
:103B900065712069733A2025640A546865206F6650
:103BA000667365742069733A2025640A5468652039
:103BB00077696474682069733A2025640A20476134
:103BC000702069733A2025640A2046697273742054
:103BD000656467652069733A2025640A204375721D
:103BE00072656E742065646765206973203A256488
:103BF0000A0054686520636C6F636B206368616EB4
:103C00006E656C2069732025640A746865206D6F89
:103C100064652069733A2025640A546865206672D9
:103C200065712069733A2025640A546865206F66BF
:103C3000667365742069733A2025640A54686520A8
:103C400077696474682069733A2025640A204761A3
:103C5000702069733A2025640A20466972737420C3
:103C6000656467652069733A2025640A204375728C
:103C700072656E742065646765206973203A2564F7
:103C80000A0054686520737461727420696E6469F7
:103C90006361746F72206368616E6E656C20697316
:103CA0002025640A746865206D6F64652069733A25
:103CB0002025640A54686520667265712069733A2C
:103CC0002025640A546865206F66667365742069F0
:103CD000733A2025640A5468652077696474682003
:103CE00069733A2025640A204761702069733A207D
:103CF00025640A20466972737420656467652069CB
:103D0000733A2025640A2043757272656E742065CB
:103D1000646765206973203A25640A0025642025BC
:103D200064202564202564202564202564202564E2
:103D30002025642025642025642025642025642016
:103D40002564202564202564202564202564202501
:103D500064202564202564202564202564202564B2
:103D600020256420256420256420256420256420E6
:103D70002564202564000000B03E000800000020FB
:103D800010000000D4020008C03E0008100000200F
:103D9000001B0000F00200081001000043000000BA
:103DA000F8FFFFFF0040404040404040404041415C
:103DB0004141414040404040404040404040404000
:103DC000404040404005020202020202020202029A
:103DD0000202020202202020202020202020200297
:103DE0000202020202029090909090901010101027
:103DF00010101010101010101010101010101010C3
:103E00000202020202028888888888880808080856
:103E10000808080808080808080808080808080822
:103E2000020202024000000000000000000000004A
:103E30000000000000000000000000000000000082
:103E40000000000000000000000000000000000072
:103E50000000000000000000000000000000000062
:103E60000000000000000000000000000000000052
:103E70000000000000000000000000000000000042
:103E80000000000000000000000000000000000032
:103E90000000000000000000000000000000000022
:103EA0000000000000000000000000000000000012
:103EB00001000000100000000090D0030090D0032B
:040000050800029954
:00000001FF
